:100000000C945C000C9479000C9479000C947900A9
:100010000C9479000C9479000C9479000C9479007C
:100020000C9479000C9479000C9479000C9479006C
:100030000C9479000C9479000C9479000C9479005C
:100040000C9462020C9479000C9479000C94790061
:100050000C9479000C9479000C9479000C9479003C
:100060000C9479000C947900000000002400270013
:100070002A0000000000250028002B0004040404CE
:100080000404040402020202020203030303030342
:10009000010204081020408001020408102001021F
:1000A00004081020000000080002010000030407FB
:1000B000000000000000000011241FBECFEFD8E0B8
:1000C000DEBFCDBF21E0A8E0B1E001C01D92A631A6
:1000D000B207E1F711E0A0E0B1E0E8ECF5E102C021
:1000E00005900D92A830B107D9F70E94AC020C948C
:1000F000E20A0C940000FC01248135816217730729
:1001000020F480819181009729F41092110181E1FE
:1001100091E00895860F971F0895089590E0FC01DF
:10012000EC55FF4F3491FC01E057FF4F2491FC0147
:10013000E458FF4FE491EE2309F43BC0332339F137
:10014000333091F038F43130A9F0323001F584B514
:100150008F7D12C0373091F03830A1F03430B9F4CF
:10016000809180008F7D03C0809180008F77809385
:1001700080000DC084B58F7784BD09C08091B00028
:100180008F7703C08091B0008F7D8093B000F0E046
:10019000EE0FFF1FEE58FF4FA591B4918FB7F89463
:1001A000EC91611103C020952E2301C02E2B2C93BE
:1001B0008FBF0895CF93DF9390E0FC01E057FF4F8E
:1001C0002491FC01E458FF4F8491882361F190E071
:1001D000880F991FFC01E859FF4FC591D491FC018C
:1001E000EE58FF4FA591B491611109C09FB7F894E3
:1001F0008881209582238883EC912E230BC0623066
:1002000061F49FB7F8943881822F80958323888387
:10021000EC912E2B2C939FBF06C08FB7F894E881EA
:100220002E2B28838FBFDF91CF9108953FB7F8948D
:1002300080910D0190910E01A0910F01B0911001DC
:1002400026B5A89B05C02F3F19F00196A11DB11D31
:100250003FBFBA2FA92F982F8827820F911DA11D6C
:10026000B11DBC01CD0142E0660F771F881F991FA9
:100270004A95D1F708958F929F92AF92BF92CF92F5
:10028000DF92EF92FF920E9416014B015C0184E61F
:10029000C82ED12CE12CF12C0E941601DC01CB01DF
:1002A00088199909AA09BB09883E9340A105B1059F
:1002B00058F021E0C21AD108E108F10888EE880E52
:1002C00083E0981EA11CB11CC114D104E104F10407
:1002D00019F7FF90EF90DF90CF90BF90AF909F9075
:1002E0008F900895CF92EF920F931F93CF93DF9348
:1002F00000D0CDB7DEB7162F682F80E02A83498360
:100300000E948E00612F81E00E948E004981642F3F
:1003100082E00E948E002A81622F83E00E948E007C
:10032000602F84E00E948E006E2D85E00E948E007A
:100330006C2D86E00F900F90DF91CF911F910F9160
:10034000EF90CF900C948E00FC01808191810C94F1
:100350007009FC0180819181009711F00C943308A1
:1003600060E070E0CB0108950F931F93CF93DF936C
:100370008C01EB01FC01808191810097B1F06881D3
:1003800079816115710579F0428153812C813D811C
:100390004217530740F00E94DB0A8C819D81F801CF
:1003A0009583848313C00E94700988819981F80124
:1003B000918380838A819B81938382838C819D81B9
:1003C00095838483198218821B821A821D821C8263
:1003D000DF91CF911F910F910895EF92FF920F93AC
:1003E0001F93CF93DF93EC017B018A018881998170
:1003F000009729F02A813B8124173507F8F4B801CA
:100400006F5F7F4F0E94080A009759F09983888395
:100410001B830A832C813D81232B81F4FC011082F4
:100420000DC088819981009711F00E94700919828E
:1004300018821D821C821B821A8207C01D830C83B6
:10044000B701888199810E94DB0ACE01DF91CF91AB
:100450001F910F91FF90EF900895FC01118210827F
:1004600013821282158214826115710551F0FB010D
:1004700001900020E9F73197AF01461B570B0C9410
:10048000ED010895CF93DF9300D0CDB7DEB7FC0127
:1004900011821082138212821582148269831A8259
:1004A000BE016F5F7F4FFB0101900020E9F731979C
:1004B000AF01461B570B0E94ED010F900F90DF918B
:1004C000CF9108951F920F920FB60F9211242F9380
:1004D0003F938F939F93AF93BF9380910901909126
:1004E0000A01A0910B01B0910C013091080123E0A9
:1004F000230F2D3720F40196A11DB11D05C026E85C
:10050000230F0296A11DB11D2093080180930901BC
:1005100090930A01A0930B01B0930C0180910D01FF
:1005200090910E01A0910F01B09110010196A11DB3
:10053000B11D80930D0190930E01A0930F01B09314
:100540001001BF91AF919F918F913F912F910F908B
:100550000FBE0F901F901895CF93DF93CDB7DEB7E6
:10056000E0970FB6F894DEBF0FBECDBF789484B588
:10057000826084BD84B5816084BD85B5826085BD9F
:1005800085B5816085BD80916E00816080936E002D
:10059000109281008091810082608093810080911F
:1005A00081008160809381008091800081608093D0
:1005B00080008091B10084608093B1008091B00090
:1005C00081608093B00080917A00846080937A008B
:1005D00080917A00826080937A0080917A008160B5
:1005E00080937A0080917A00806880937A001092DC
:1005F000C10061E080E00E94DA0061E081E00E94D9
:10060000DA0061E082E00E94DA0061E083E00E94AB
:10061000DA0061E084E00E94DA0061E085E00E9497
:10062000DA0061E086E00E94DA0061E088E00E9482
:10063000DA0061E089E00E94DA0061E08AE00E946D
:10064000DA0061E08BE00E94DA0060E08EE00E9458
:10065000DA00CE0101965C0190E490937C008091D9
:100660007A00806480937A0080917A0086FDFCCFC6
:100670008090780080917900912C982A66E071E052
:10068000CE018B960E942D021C8A1B8A1E8A1D8A0F
:10069000188E1F8A4AE0B501C4010E945A08F5016C
:1006A00001900020E9F73197AF014A195B09B501C4
:1006B000CE0143960E94ED01BE016D5E7F4FCE01DB
:1006C0008B960E94B401CE0143960E94A40166E07D
:1006D00071E0CE0185960E942D0266E071E0CE01A8
:1006E0004F960E942D0266E071E0CE0149960E946D
:1006F0002D0266E071E0CE0143960E942D02EAE0F1
:100700008E1691040CF04CC061E070E0CE018B9627
:100710000E947B00FC016081C5010E944202B5017C
:10072000CE014F960E94B401C5010E94A40160E071
:1007300070E0CE018B960E947B00FC016081C501B8
:100740000E944202B501CE0185960E94B401C50106
:100750000E94A40162E070E0CE018B960E947B00B3
:10076000FC016081C5010E944202B501CE0149969B
:100770000E94B401C5010E94A40163E070E0CE01B3
:100780008B960E947B00FC016081C5010E944202A1
:10079000B501CE0143960E94B401C5010E94A40197
:1007A000C4010A978A35910508F04CC060E070E0FA
:1007B000CE018B960E947B00FC016081C5010E94E6
:1007C0004202B501CE014F960E94B401C5010E94BC
:1007D000A40161E070E0CE018B960E947B00FC01D9
:1007E0006081C5010E944202B501CE0185960E943A
:1007F000B401C5010E94A40162E070E0CE018B96B5
:100800000E947B00FC016081C5010E944202B5018B
:10081000CE0149960E94B401C5010E94A40163E083
:1008200070E0CE018B960E947B00FC016081C501C7
:100830000E944202B501CE0143960E94B401C50157
:100840000E94A401C401845691098438934008F0A1
:100850004CC061E070E0CE018B960E947B00FC01F1
:100860006081C5010E944202B501CE014F960E94EF
:10087000B401C5010E94A40162E070E0CE018B9634
:100880000E947B00FC016081C5010E944202B5010B
:10089000CE0185960E94B401C5010E94A40160E0CA
:1008A00070E0CE018B960E947B00FC016081C50147
:1008B0000E944202B501CE0149960E94B401C501D1
:1008C0000E94A40163E070E0CE018B960E947B0041
:1008D000FC016081C5010E944202B501CE01439630
:1008E0000E94B401C5010E94A401F8EE8F1AF3E042
:1008F0009F0A28E2821623E2920608F04CC062E0CA
:1009000070E0CE018B960E947B00FC016081C501E6
:100910000E944202B501CE014F960E94B401C5016A
:100920000E94A40163E070E0CE018B960E947B00E0
:10093000FC016081C5010E944202B501CE0185968D
:100940000E94B401C5010E94A40161E070E0CE01E3
:100950008B960E947B00FC016081C5010E944202CF
:10096000B501CE0149960E94B401C5010E94A401BF
:1009700060E070E0CE018B960E947B00FC016081FC
:10098000C5010E944202B501CE0143960E94B40106
:10099000C5010E94A401CE0185960E94A9011B01F8
:1009A000CE014F960E94A9012B01CE0149960E94CB
:1009B000A9014B01CE0143960E94A9013B0161E0D0
:1009C00088E00E948E0061E089E00E948E0061E074
:1009D0008AE00E948E0060E08BE00E948E0061142D
:1009E000710479F4CC24C394D12CEE24E394F12C3B
:1009F00001E010E021E030E041E050E061E070E033
:100A000011C0F1E06F16710491F4C12CD12CEE24C9
:100A1000E394F12C01E010E020E030E040E050E011
:100A200060E070E080E090E00E94720144C022E04B
:100A30006216710499F4CC24C394D12CEE24E3946F
:100A4000F12C00E010E021E030E041E050E060E017
:100A500070E081E090E00E94720137C083E0681688
:100A6000710499F4CC24C394D12CEE24E394F12C9A
:100A700001E010E021E030E040E050E060E070E0B4
:100A800081E090E00E9472012AC094E0691671042E
:100A900091F4C12CD12CEE24E394F12C01E010E070
:100AA00020E030E040E050E061E070E081E090E084
:100AB0000E9472013AC0E5E06E16710431F4CC2454
:100AC000C394D12CE12CF12C3AC0F6E06F167104DE
:100AD00031F4CC24C394D12CE12CF12C1FC027E09D
:100AE0006216710489F4CC24C394D12CEE24E394CF
:100AF000F12C01E010E020E030E040E050E060E068
:100B000070E080E090E025C088E06816710469F428
:100B1000CC24C394D12CEE24E394F12C01E010E01A
:100B200021E030E041E050E010C099E06916710426
:100B300091F4CC24C394D12CEE24E394F12C01E065
:100B400010E021E030E040E050E061E070E081E062
:100B500090E00E9472010E943B0161E088E00E94E7
:100B60008E0061E089E00E948E0060E08AE00E94D1
:100B70008E0061E08BE00E948E008114910479F474
:100B8000CC24C394D12CEE24E394F12C01E010E0AA
:100B900021E030E041E050E061E070E011C0E1E0D0
:100BA0008E16910491F4C12CD12CEE24E394F12CF7
:100BB00001E010E020E030E040E050E060E070E074
:100BC00080E090E00E94720144C0F2E08F16910430
:100BD00099F4CC24C394D12CEE24E394F12C00E0BE
:100BE00010E021E030E041E050E060E070E081E0C2
:100BF00090E00E94720137C023E08216910499F4BC
:100C0000CC24C394D12CEE24E394F12C01E010E029
:100C100021E030E040E050E060E070E081E090E012
:100C20000E9472012AC084E08816910491F4C12CBC
:100C3000D12CEE24E394F12C01E010E020E030E030
:100C400040E050E061E070E081E090E00E947201DD
:100C50003AC095E08916910431F4CC24C394D12C88
:100C6000E12CF12C3AC0E6E08E16910431F4CC244C
:100C7000C394D12CE12CF12C1FC0F7E08F16910406
:100C800089F4CC24C394D12CEE24E394F12C01E01C
:100C900010E020E030E040E050E060E070E080E014
:100CA00090E025C028E08216910469F4CC24C39416
:100CB000D12CEE24E394F12C01E010E021E030E0AF
:100CC00041E050E010C089E08816910491F4CC24F2
:100CD000C394D12CEE24E394F12C01E010E021E048
:100CE00030E040E050E061E070E081E090E00E94A0
:100CF00072010E943B0161E088E00E948E0060E08A
:100D000089E00E948E0061E08AE00E948E0061E02E
:100D10008BE00E948E004114510479F4CC24C394DA
:100D2000D12CEE24E394F12C01E010E021E030E03E
:100D300041E050E061E070E011C091E049165104DB
:100D400091F4C12CD12CEE24E394F12C01E010E0BD
:100D500020E030E040E050E060E070E080E090E0D3
:100D60000E94720144C0E2E04E16510499F4CC2472
:100D7000C394D12CEE24E394F12C00E010E021E0A8
:100D800030E041E050E060E070E081E090E00E94FF
:100D9000720137C0F3E04F16510499F4CC24C39488
:100DA000D12CEE24E394F12C01E010E021E030E0BE
:100DB00040E050E060E070E081E090E00E9472016D
:100DC0002AC024E04216510491F4C12CD12CEE2407
:100DD000E394F12C01E010E020E030E040E050E04E
:100DE00061E070E081E090E00E9472013AC085E02D
:100DF0004816510431F4CC24C394D12CE12CF12CAD
:100E00003AC096E04916510431F4CC24C394D12C55
:100E1000E12CF12C1FC0E7E04E16510489F4CC24DC
:100E2000C394D12CEE24E394F12C01E010E020E0F7
:100E300030E040E050E060E070E080E090E025C00D
:100E4000F8E04F16510469F4CC24C394D12CEE245D
:100E5000E394F12C01E010E021E030E041E050E0CB
:100E600010C029E04216510491F4CC24C394D12C33
:100E7000EE24E394F12C01E010E021E030E040E0CA
:100E800050E061E070E081E090E00E9472010E9419
:100E90003B0160E088E00E948E0061E089E00E94F2
:100EA0008E0061E08AE00E948E0061E08BE00E948B
:100EB0008E002114310479F4CC24C394D12CEE2477
:100EC000E394F12C01E010E021E030E041E050E05B
:100ED00061E070E011C081E02816310491F4C12C6A
:100EE000D12CEE24E394F12C01E010E020E030E07E
:100EF00040E050E060E070E080E090E00E9472012D
:100F000044C092E02916310499F4CC24C394D12C26
:100F1000EE24E394F12C00E010E021E030E041E029
:100F200050E060E070E081E090E00E94720137C024
:100F3000E3E02E16310499F4CC24C394D12CEE2492
:100F4000E394F12C01E010E021E030E040E050E0DB
:100F500060E070E081E090E00E9472012AC0F4E05D
:100F60002F16310491F4C12CD12CEE24E394F12CF2
:100F700001E010E020E030E040E050E061E070E0AF
:100F800081E090E00E9472013AC025E0221631040F
:100F900031F4CC24C394D12CE12CF12C3AC086E05E
:100FA0002816310431F4CC24C394D12CE12CF12C3B
:100FB0001FC097E02916310489F4CC24C394D12CA6
:100FC000EE24E394F12C01E010E020E030E040E07A
:100FD00050E060E070E080E090E025C0E8E02E1690
:100FE000310469F4CC24C394D12CEE24E394F12C85
:100FF00001E010E021E030E041E050E010C0F9E015
:101000002F16310491F4CC24C394D12CEE24E39414
:10101000F12C01E010E021E030E040E050E061E040
:1010200070E081E090E00E9472010E943B01CE01DD
:1010300043960E94A401CE0149960E94A401CE01CC
:101040004F960E94A401CE0185960E94A401CE0174
:101050008B960E94A40180E090E0892B09F4FCCAE1
:101060000E940000F9CA1F93FC0199278827BC0140
:10107000E89411911032E9F3193010F01E30C8F3E2
:101080001B3251F01D3249F4689406C00E94650875
:10109000610F711D811D911D119110531A30B0F314
:1010A0003EF490958095709561957F4F8F4F9F4F3F
:1010B0001F910895BB274A3031F4992322F4BDE2F1
:1010C000909581959F4F0C947B08592F482F372F6F
:1010D000262F660F771F881F991F660F771F881F9F
:1010E000991F620F731F841F951F660F771F881F3C
:1010F000991F0895BB27FB015527AA27880F991F21
:10110000AA1FA41710F0A41B83955051B9F7A05D36
:10111000AA3308F0A95DA193009779F7B111B193B3
:101120001192CB010C949408DC01FC01672F7191A2
:101130007723E1F7329704C07C916D9370836291BD
:10114000AE17BF07C8F308952F923F924F925F9258
:101150006F927F928F929F92AF92BF92CF92DF92C7
:10116000EF92FF920F931F93CF93DF93CDB7DEB72C
:10117000CA1BDB0B0FB6F894DEBF0FBECDBF0994C0
:101180002A88398848885F846E847D848C849B8417
:10119000AA84B984C884DF80EE80FD800C811B8125
:1011A000AA81B981CE0FD11D0FB6F894DEBF0FBE54
:1011B000CDBFED010895CF93DF938230910510F4F8
:1011C00082E090E0E0911401F091150120E030E020
:1011D000C0E0D0E0309711F14081518148175907A4
:1011E000C0F04817590761F482819381209719F064
:1011F0009B838A832BC0909315018093140126C092
:101200002115310519F04217530718F49A01BE0150
:10121000DF01EF010280F381E02DDCCF21153105E4
:1012200009F1281B390B2430310590F412968D9169
:101230009C9113976115710521F0FB0193838283C3
:1012400004C09093150180931401FD01329644C0AF
:10125000FD01E20FF31F81939193225031092D93E9
:101260003C933AC02091120130911301232B41F499
:101270002091020130910301309313012093120158
:1012800020910001309101012115310541F42DB764
:101290003EB74091040150910501241B350BE091AC
:1012A0001201F0911301E217F307A0F42E1B3F0B7C
:1012B0002817390778F0AC014E5F5F4F24173507C8
:1012C00048F04E0F5F1F509313014093120181931A
:1012D000919302C0E0E0F0E0CF01DF91CF9108955B
:1012E0000F931F93CF93DF93009709F48CC0FC01F9
:1012F0003297138212820091140110911501011589
:10130000110581F420813181820F931F20911201F8
:10131000309113012817390779F5F0931301E09301
:10132000120171C0D80140E050E0AE17BF0750F481
:1013300012962D913C911397AD012115310509F1BC
:10134000D901F3CF9D01DA0133832283608171815A
:10135000860F971F8217930769F4EC012881398162
:10136000260F371F2E5F3F4F318320838A819B8159
:1013700093838283452B29F4F0931501E0931401A4
:1013800042C01396FC93EE931297ED014991599147
:101390009E01240F351FE217F30771F480819181BC
:1013A000840F951F029611969C938E938281938150
:1013B00013969C938E931297E0E0F0E0D80112967A
:1013C0008D919C911397009719F0F8018C01F6CF3D
:1013D0008D919C9198012E5F3F4F820F931F20911A
:1013E0001201309113012817390769F4309729F455
:1013F000109215011092140102C0138212821093F0
:10140000130100931201DF91CF911F910F91089565
:10141000A0E0B0E0EEE0FAE00C94A808EC01009740
:1014200021F4CB010E94DB08B8C0FC01E60FF71FD6
:101430009C0122503109E217F30708F4ACC0D9012E
:101440000D911C91119706171707B0F00530110583
:1014500008F49FC0C80104978617970708F499C03D
:1014600002501109061B170B019311936D937C9386
:10147000CF010E9470098DC05B01A01AB10A4C0116
:10148000800E911EA0911401B091150140E050E032
:10149000E12CF12C109709F44AC0A815B905D1F533
:1014A0006D907C901197630182E0C80ED11CCA1424
:1014B000DB0480F1A3014A195B096A0182E0C80ECE
:1014C000D11C1296BC9012971396AC91B5E0CB1636
:1014D000D10440F0B282A38351834083D9016D933C
:1014E0007C930AC00E5F1F4FC301800F911FF9014B
:1014F00091838083EB2DFA2FE114F10431F0D701B1
:101500001396FC93EE93129744C0F0931501E09369
:1015100014013FC08D919C9111974817590708F409
:10152000AC017D0112960D90BC91A02DB3CF80919E
:1015300012019091130188159905E1F44617570798
:10154000C8F48091000190910101009741F48DB79A
:101550009EB74091040150910501841B950BE8173B
:10156000F907C8F4F0931301E0931201F9017183B4
:1015700060830FC0CB010E94DB087C01009759F00B
:10158000A801BE010E94D20ACE010E947009C701C3
:1015900004C0CE0102C080E090E0CDB7DEB7EEE03F
:1015A0000C94C408FB01DC0102C001900D92415073
:1015B0005040D8F70895FB01DC0101900D92002006
:0815C000E1F70895F894FFCF54
:0815C800000016018000000084
:00000001FF
