:100000000C9461000C9473000C9473000C947300B6
:100010000C9473000C9473000C9473000C94730094
:100020000C9473000C9473000C9473000C94730084
:100030000C9473000C9473000C9473000C94730074
:100040000C9490010C9473000C9473000C94730046
:100050000C9473000C9473000C9473000C94730054
:100060000C9473000C94730000000000240027001F
:100070002A0000000000250028002B0000000000DE
:1000800023002600290004040404040404040202DA
:100090000202020203030303030301020408102007
:1000A0004080010204081020010204081020000012
:1000B0000008000201000003040700000000000027
:1000C000000011241FBECFEFD8E0DEBFCDBF21E07E
:1000D000A0E0B1E001C01D92A930B207E1F70E9493
:1000E000DA010C9410030C940000833081F028F4A2
:1000F000813099F08230A1F008958730A9F08830DE
:10010000B9F08430D1F4809180008F7D03C080915C
:1001100080008F7780938000089584B58F7702C028
:1001200084B58F7D84BD08958091B0008F7703C022
:100130008091B0008F7D8093B0000895CF93DF93BE
:10014000282F30E0F901E255FF4F8491F901E6567E
:10015000FF4FD491F901EA57FF4FC491CC2391F09E
:1001600081110E947500EC2FF0E0EE0FFF1FE458A4
:10017000FF4FA591B491EC91ED2381E090E021F443
:1001800080E002C080E090E0DF91CF9108951F935E
:10019000CF93DF93282F30E0F901E255FF4F849190
:1001A000F901E656FF4FD491F901EA57FF4FC49188
:1001B000CC23C9F0162F81110E947500EC2FF0E0BE
:1001C000EE0FFF1FEE58FF4FA591B4918FB7F89433
:1001D000111105C09C91ED2FE095E92302C0EC912F
:1001E000ED2BEC938FBFDF91CF911F910895CF93AB
:1001F000DF9390E0FC01E656FF4F2491FC01EA57A3
:10020000FF4F8491882361F190E0880F991FFC01D2
:10021000E859FF4FC591D491FC01EE58FF4FA591CD
:10022000B491611109C09FB7F89488812095822309
:100230008883EC912E230BC0623061F49FB7F89451
:100240003881822F809583238883EC912E2B2C93E9
:100250009FBF06C08FB7F894E8812E2B28838FBFED
:10026000DF91CF9108953FB7F89480910501909167
:100270000601A0910701B091080126B5A89B05C011
:100280002F3F19F00196A11DB11D3FBFBA2FA92F15
:10029000982F8827820F911DA11DB11DBC01CD0192
:1002A00042E0660F771F881F991F4A95D1F708957E
:1002B0008F929F92AF92BF92CF92DF92EF92FF9276
:1002C0000E9433014B015C0188EEC82E83E0D82EDA
:1002D000E12CF12C0E943301DC01CB018819990932
:1002E000AA09BB09883E9340A105B10558F021E059
:1002F000C21AD108E108F10888EE880E83E0981E42
:10030000A11CB11CC114D104E104F10419F7FF9040
:10031000EF90DF90CF90BF90AF909F908F90089517
:100320001F920F920FB60F9211242F933F938F932A
:100330009F93AF93BF938091010190910201A0918F
:100340000301B09104013091000123E0230F2D3708
:1003500020F40196A11DB11D05C026E8230F0296C9
:10036000A11DB11D20930001809301019093020112
:10037000A0930301B09304018091050190910601BF
:10038000A0910701B09108010196A11DB11D8093B4
:10039000050190930601A0930701B0930801BF9156
:1003A000AF919F918F913F912F910F900FBE0F9022
:1003B0001F901895789484B5826084BD84B581605F
:1003C00084BD85B5826085BD85B5816085BD809120
:1003D0006E00816080936E00109281008091810098
:1003E0008260809381008091810081608093810090
:1003F000809180008160809380008091B100846052
:100400008093B1008091B00081608093B0008091B2
:100410007A00846080937A0080917A008260809371
:100420007A0080917A00816080937A0080917A00CE
:10043000806880937A001092C10060E08EE00E9494
:10044000F70060E08FE00E94F70060E080E10E942A
:10045000F70061E088E00E94F70061E089E00E9417
:10046000F70061E08AE00E94F70061E08BE00E9403
:10047000F70061E08CE00E94F70061E08DE00E94EF
:10048000F70080E0E82E80E0F82E8EE00E949E00CB
:100490008C018FE00E949E00EC0180E10E949E0092
:1004A00001151105D1F5209769F4009711F460E06A
:1004B00004C0019709F0ADC061E088E00E94C70068
:1004C00060E00AC0219709F0A4C00097C9F461E078
:1004D00088E00E94C70061E089E00E94C70060E0F8
:1004E0008AE00E94C70060E08BE00E94C70060E0E5
:1004F0008CE00E94C70060E08DE00E94C70089C0C8
:10050000019709F086C061E088E00E94C70061E0C1
:1005100089E00E94C70061E0E3CF0130110509F0D6
:1005200078C0209729F5009771F461E088E00E9477
:10053000C70061E089E00E94C70061E08AE00E9494
:10054000C70061E0D1CF019709F063C061E088E0A6
:100550000E94C70061E089E00E94C70061E08AE074
:100560000E94C70061E08BE00E94C70061E0C0CF3D
:10057000219709F04EC00097B1F461E088E00E9435
:10058000C70061E089E00E94C70061E08AE00E9444
:10059000C70061E08BE00E94C70061E08CE00E9430
:1005A000C70061E0A9CF0197A1F561E088E00E9452
:1005B000C70061E089E00E94C70061E08AE00E9414
:1005C000C70061E08BE00E94C70061E08CE00E9400
:1005D000C70061E08DE00E94C7000E94580160E002
:1005E00088E00E94C70060E089E00E94C70060E0E8
:1005F0008AE00E94C70060E08BE00E94C70060E0D4
:100600008CE00E94C70060E08DE00E94C7000E945D
:100610005801E114F10409F438CF0E94000035CFED
:04062000F894FFCF7C
:00000001FF
