:100000000C945C000C9479000C9479000C947900A9
:100010000C9479000C9479000C9479000C9479007C
:100020000C9479000C9479000C9479000C9479006C
:100030000C9479000C9479000C9479000C9479005C
:100040000C943A020C9479000C9479000C94790089
:100050000C9479000C9479000C9479000C9479003C
:100060000C9479000C947900000000080002010053
:100070000003040700000000000000000000000072
:10008000250028002B0000000000240027002A0083
:10009000040404040404040402020202020203032E
:1000A0000303030301020408102040800102040836
:1000B000102001020408102011241FBECFEFD8E049
:1000C000DEBFCDBF21E0A8E0B1E001C01D92A631A6
:1000D000B207E1F711E0A0E0B1E0E8E9F2E102C027
:1000E00005900D92A830B107D9F70E9484020C94B4
:1000F0004A090C94000090E0FC01EC55FF4F24915C
:10010000FC01E057FF4F8491882399F090E0880F1D
:10011000991FFC01EA57FF4FA591B491FC01E458E7
:10012000FF4F859194918FB7F894EC91E22BEC936B
:100130008FBF0895FC01248135816217730720F475
:1001400080819181009729F41092110181E191E061
:100150000895860F971F0895089590E0FC01E859CF
:10016000FF4F3491FC01EC55FF4F2491FC01E05707
:10017000FF4FE491EE2309F43BC0332339F13330D0
:1001800091F038F43130A9F0323001F584B58F7D2B
:1001900012C0373091F03830A1F03430B9F480918A
:1001A00080008F7D03C0809180008F7780938000D6
:1001B0000DC084B58F7784BD09C08091B0008F7762
:1001C00003C08091B0008F7D8093B000F0E0EE0F0F
:1001D000FF1FE458FF4FA591B4918FB7F894EC91AD
:1001E000611103C020952E2301C02E2B2C938FBFAD
:1001F00008953FB7F89480910D0190910E01A09160
:100200000F01B091100126B5A89B05C02F3F19F032
:100210000196A11DB11D3FBFBA2FA92F982F882786
:10022000820F911DA11DB11DBC01CD0142E0660FE1
:10023000771F881F991F4A95D1F708958F929F9233
:10024000AF92BF92CF92DF92EF92FF920E94F9009D
:100250004B015C0184E6C82ED12CE12CF12C0E94CC
:10026000F900DC01CB0188199909AA09BB09883E6C
:100270009340A105B10558F021E0C21AD108E10868
:10028000F10888EE880E83E0981EA11CB11CC114F1
:10029000D104E104F10419F7FF90EF90DF90CF90C3
:1002A000BF90AF909F908F900895CF92EF920F9351
:1002B0001F93CF93DF9300D0CDB7DEB7162F682FF3
:1002C00080E02A8349830E94AD00612F81E00E9473
:1002D000AD004981642F82E00E94AD002A81622F27
:1002E00083E00E94AD00602F84E00E94AD006E2D7F
:1002F00085E00E94AD006C2D86E00F900F90DF919D
:10030000CF911F910F91EF90CF900C94AD00FC0115
:10031000808191810C94D8070F931F93CF93DF9323
:100320008C01EB01FC01808191810097B1F0688123
:1003300079816115710579F0428153812C813D816C
:100340004217530740F00E9443098C819D81F801B8
:100350009583848313C00E94D80788819981F8010E
:10036000918380838A819B81938382838C819D8109
:1003700095838483198218821B821A821D821C82B3
:10038000DF91CF911F910F910895EF92FF920F93FC
:100390001F93CF93DF93EC017B018A0188819981C0
:1003A000009729F02A813B8124173507F8F4B8011A
:1003B0006F5F7F4F0E947008009759F09983888380
:1003C0001B830A832C813D81232B81F4FC01108245
:1003D0000DC088819981009711F00E94D807198279
:1003E00018821D821C821B821A8207C01D830C8307
:1003F000B701888199810E944309CE01DF91CF9195
:100400001F910F91FF90EF900895FC0111821082CF
:1004100013821282158214826115710551F0FB015D
:1004200001900020E9F73197AF01461B570B0C9460
:10043000C5010895CF93DF9300D0CDB7DEB7FC019F
:1004400011821082138212821582148269831A82A9
:10045000BE016F5F7F4FFB0101900020E9F73197EC
:10046000AF01461B570B0E94C5010F900F90DF9103
:10047000CF9108951F920F920FB60F9211242F93D0
:100480003F938F939F93AF93BF9380910901909176
:100490000A01A0910B01B0910C013091080123E0F9
:1004A000230F2D3720F40196A11DB11D05C026E8AC
:1004B000230F0296A11DB11D20930801809309010D
:1004C00090930A01A0930B01B0930C0180910D0150
:1004D00090910E01A0910F01B09110010196A11D04
:1004E000B11D80930D0190930E01A0930F01B09365
:1004F0001001BF91AF919F918F913F912F910F90DC
:100500000FBE0F901F901895CF93DF93CDB7DEB736
:10051000AE970FB6F894DEBF0FBECDBF789484B50A
:10052000826084BD84B5816084BD85B5826085BDEF
:1005300085B5816085BD80916E00816080936E007D
:10054000109281008091810082608093810080916F
:100550008100816080938100809180008160809320
:1005600080008091B10084608093B1008091B000E0
:1005700081608093B00080917A00846080937A00DB
:1005800080917A00826080937A0080917A00816005
:1005900080937A0080917A00806880937A0010922C
:1005A000C10080E00E947B0081E00E947B0082E02D
:1005B0000E947B0083E00E947B0084E00E947B001D
:1005C00085E00E947B0086E00E947B0088E00E941C
:1005D0007B0089E00E947B008AE00E947B009E01F4
:1005E0002F5F3F4F590180E190E09CA78BA780E0EF
:1005F00090E0E1E0F0E0FEA7EDA72DA43EA4280ED8
:10060000391E66E071E0CE0185960E9405021C8AC3
:100610001B8A1E8A1D8A188E1F8A4AE0B501C101F5
:100620000E94C206F50101900020E9F73197AF0161
:100630004A195B09B501CE0143960E94C501BE016E
:100640006D5E7F4FCE0185960E948C01CE01439650
:100650000E94870166E071E0CE014F960E9405027C
:1006600066E071E0CE0149960E94050266E071E005
:10067000CE0143960E940502FAE02F163104CCF514
:1006800061E070E0CE0185960E949A00FC016081D5
:10069000C5010E941A02B501CE0149960E948C0143
:1006A000C5010E94870160E070E0CE0185960E943E
:1006B0009A00FC016081C5010E941A02B501CE01B9
:1006C0004F960E948C01C5010E94870162E070E094
:1006D000CE0185960E949A00FC016081C5010E94AE
:1006E0001A02B501CE0143960E948C01C5010E94F9
:1006F0008701C1010A978A359105C8F560E070E06D
:10070000CE0185960E949A00FC016081C5010E947D
:100710001A02B501CE0149960E948C01C5010E94C2
:10072000870161E070E0CE0185960E949A00FC018D
:100730006081C5010E941A02B501CE014F960E9448
:100740008C01C5010E94870162E070E0CE018596B0
:100750000E949A00FC016081C5010E941A02B50145
:10076000CE0143960E948C01C5010E948701C10100
:100770008456910984389340C8F561E070E0CE0159
:1007800085960E949A00FC016081C5010E941A02B0
:10079000B501CE0149960E948C01C5010E948701D6
:1007A00062E070E0CE0185960E949A00FC016081B3
:1007B000C5010E941A02B501CE014F960E948C011C
:1007C000C5010E94870160E070E0CE0185960E941D
:1007D0009A00FC016081C5010E941A02B501CE0198
:1007E00043960E948C01C5010E9487018F8D98A1BC
:1007F000009719F00E949B0603C060E070E0CB01F7
:100800002B01898D9A8D009719F00E949B0603C0D9
:1008100060E070E0CB014B018B899C89009719F057
:100820000E949B0603C060E070E0CB013B0161E0E9
:1008300088E00E94AD0061E089E00E94AD0060E0C8
:100840008AE00E94AD006114710479F4CC24C39451
:10085000D12CEE24E394F12C01E010E021E030E013
:1008600041E050E061E070E011C0F1E06F1671040A
:1008700091F4C12CD12CEE24E394F12C01E010E092
:1008800020E030E040E050E060E070E080E090E0A8
:100890000E94550144C022E06216710499F4CC24F0
:1008A000C394D12CEE24E394F12C00E010E021E07D
:1008B00030E041E050E060E070E081E090E00E94D4
:1008C000550137C033E06316710499F4CC24C39406
:1008D000D12CEE24E394F12C01E010E021E030E093
:1008E00040E050E060E070E081E090E00E9455015F
:1008F0002AC084E06816710491F4C12CD12CEE2436
:10090000E394F12C01E010E020E030E040E050E022
:1009100061E070E081E090E00E9455013AC095E00E
:100920006916710431F4CC24C394D12CE12CF12C40
:100930003AC0E6E06E16710431F4CC24C394D12C95
:10094000E12CF12C1FC0F7E06F16710489F4CC2460
:10095000C394D12CEE24E394F12C01E010E020E0CC
:1009600030E040E050E060E070E080E090E025C0E2
:1009700028E06216710469F4CC24C394D12CEE24CF
:10098000E394F12C01E010E021E030E041E050E0A0
:1009900010C039E06316710491F4CC24C394D12CB7
:1009A000EE24E394F12C01E010E021E030E040E09F
:1009B00050E061E070E081E090E00E9455010E940B
:1009C0001E0161E088E00E94AD0060E089E00E94C5
:1009D000AD0061E08AE00E94AD008114910479F4D9
:1009E000CC24C394D12CEE24E394F12C01E010E04C
:1009F00021E030E041E050E061E070E011C081E0D2
:100A00008816910491F4C12CD12CEE24E394F12C9E
:100A100001E010E020E030E040E050E060E070E015
:100A200080E090E00E94550144C092E08916910454
:100A300099F4CC24C394D12CEE24E394F12C00E05F
:100A400010E021E030E041E050E060E070E081E063
:100A500090E00E94550137C0E3E08E16910499F4AE
:100A6000CC24C394D12CEE24E394F12C01E010E0CB
:100A700021E030E040E050E060E070E081E090E0B4
:100A80000E9455012AC0F4E08F16910491F4C12C04
:100A9000D12CEE24E394F12C01E010E020E030E0D2
:100AA00040E050E061E070E081E090E00E9455019C
:100AB0003AC025E08216910431F4CC24C394D12CA1
:100AC000E12CF12C3AC036E08316910431F4CC24A9
:100AD000C394D12CE12CF12C1FC087E0881691041F
:100AE00089F4CC24C394D12CEE24E394F12C01E0BE
:100AF00010E020E030E040E050E060E070E080E0B6
:100B000090E025C098E08916910469F4CC24C39440
:100B1000D12CEE24E394F12C01E010E021E030E050
:100B200041E050E010C0E9E08E16910491F4CC242D
:100B3000C394D12CEE24E394F12C01E010E021E0E9
:100B400030E040E050E061E070E081E090E00E9441
:100B500055010E941E0160E088E00E94AD0061E046
:100B600089E00E94AD0061E08AE00E94AD0041147E
:100B7000510479F4CC24C394D12CEE24E394F12CC9
:100B800001E010E021E030E041E050E061E070E0A1
:100B900011C0F1E04F16510491F4C12CD12CEE2478
:100BA000E394F12C01E010E020E030E040E050E080
:100BB00060E070E080E090E00E94550144C022E0D7
:100BC0004216510499F4CC24C394D12CEE24E3941E
:100BD000F12C00E010E021E030E041E050E060E086
:100BE00070E081E090E00E94550137C033E0431689
:100BF000510499F4CC24C394D12CEE24E394F12C29
:100C000001E010E021E030E040E050E060E070E022
:100C100081E090E00E9455012AC084E0481651040A
:100C200091F4C12CD12CEE24E394F12C01E010E0DE
:100C300020E030E040E050E061E070E081E090E0F2
:100C40000E9455013AC095E04916510431F4CC2474
:100C5000C394D12CE12CF12C3AC0E6E04E1651049D
:100C600031F4CC24C394D12CE12CF12C1FC0F7E03B
:100C70004F16510489F4CC24C394D12CEE24E39470
:100C8000F12C01E010E020E030E040E050E060E0D6
:100C900070E080E090E025C028E04216510469F43D
:100CA000CC24C394D12CEE24E394F12C01E010E089
:100CB00021E030E041E050E010C039E0431651043B
:100CC00091F4CC24C394D12CEE24E394F12C01E0D4
:100CD00010E021E030E040E050E061E070E081E0D1
:100CE00090E00E9455010E941E01CE0143960E9491
:100CF0008701CE0149960E948701CE014F960E943E
:100D00008701CE0185960E9487018BA59CA501973E
:100D10009CA78BA78DA59EA5EBA5FCA5EF2B19F095
:100D20003EA62DA66ACC80E090E0892B09F45BCC2E
:100D30000E94000058CC1F93FC0199278827BC0112
:100D4000E89411911032E9F3193010F01E30C8F315
:100D50001B3251F01D3249F4689406C00E94CD0642
:100D6000610F711D811D911D119110531A30B0F347
:100D70003EF490958095709561957F4F8F4F9F4F72
:100D80001F910895BB274A3031F4992322F4BDE224
:100D9000909581959F4F0C94E306592F482F372F3C
:100DA000262F660F771F881F991F660F771F881FD2
:100DB000991F620F731F841F951F660F771F881F6F
:100DC000991F0895BB27FB015527AA27880F991F54
:100DD000AA1FA41710F0A41B83955051B9F7A05D6A
:100DE000AA3308F0A95DA193009779F7B111B193E7
:100DF0001192CB010C94FC06DC01FC01672F719170
:100E00007723E1F7329704C07C916D9370836291F0
:100E1000AE17BF07C8F308952F923F924F925F928B
:100E20006F927F928F929F92AF92BF92CF92DF92FA
:100E3000EF92FF920F931F93CF93DF93CDB7DEB75F
:100E4000CA1BDB0B0FB6F894DEBF0FBECDBF0994F3
:100E50002A88398848885F846E847D848C849B844A
:100E6000AA84B984C884DF80EE80FD800C811B8158
:100E7000AA81B981CE0FD11D0FB6F894DEBF0FBE87
:100E8000CDBFED010895CF93DF938230910510F42B
:100E900082E090E0E0911401F091150120E030E053
:100EA000C0E0D0E0309711F14081518148175907D7
:100EB000C0F04817590761F482819381209719F097
:100EC0009B838A832BC0909315018093140126C0C5
:100ED0002115310519F04217530718F49A01BE0184
:100EE000DF01EF010280F381E02DDCCF2115310518
:100EF00009F1281B390B2430310590F412968D919D
:100F00009C9113976115710521F0FB0193838283F6
:100F100004C09093150180931401FD01329644C0E2
:100F2000FD01E20FF31F81939193225031092D931C
:100F30003C933AC02091120130911301232B41F4CC
:100F4000209102013091030130931301209312018B
:100F500020910001309101012115310541F42DB797
:100F60003EB74091040150910501241B350BE091DF
:100F70001201F0911301E217F307A0F42E1B3F0BAF
:100F80002817390778F0AC014E5F5F4F24173507FB
:100F900048F04E0F5F1F509313014093120181934D
:100FA000919302C0E0E0F0E0CF01DF91CF9108958E
:100FB0000F931F93CF93DF93009709F48CC0FC012C
:100FC00032971382128200911401109115010115BC
:100FD000110581F420813181820F931F209112012C
:100FE000309113012817390779F5F0931301E09335
:100FF000120171C0D80140E050E0AE17BF0750F4B5
:1010000012962D913C911397AD012115310509F1EF
:10101000D901F3CF9D01DA0133832283608171818D
:10102000860F971F8217930769F4EC012881398195
:10103000260F371F2E5F3F4F318320838A819B818C
:1010400093838283452B29F4F0931501E0931401D7
:1010500042C01396FC93EE931297ED01499159917A
:101060009E01240F351FE217F30771F480819181EF
:10107000840F951F029611969C938E938281938183
:1010800013969C938E931297E0E0F0E0D8011296AD
:101090008D919C911397009719F0F8018C01F6CF70
:1010A0008D919C9198012E5F3F4F820F931F20914D
:1010B0001201309113012817390769F4309729F488
:1010C000109215011092140102C013821282109323
:1010D000130100931201DF91CF911F910F91089599
:1010E000A0E0B0E0E6E7F8E00C941007EC01009710
:1010F00021F4CB010E944307B8C0FC01E60FF71FA3
:101100009C0122503109E217F30708F4ACC0D90161
:101110000D911C91119706171707B0F005301105B6
:1011200008F49FC0C80104978617970708F499C070
:1011300002501109061B170B019311936D937C93B9
:10114000CF010E94D8078DC05B01A01AB10A4C01E3
:10115000800E911EA0911401B091150140E050E065
:10116000E12CF12C109709F44AC0A815B905D1F566
:101170006D907C901197630182E0C80ED11CCA1457
:10118000DB0480F1A3014A195B096A0182E0C80E01
:10119000D11C1296BC9012971396AC91B5E0CB1669
:1011A000D10440F0B282A38351834083D9016D936F
:1011B0007C930AC00E5F1F4FC301800F911FF9017E
:1011C00091838083EB2DFA2FE114F10431F0D701E4
:1011D0001396FC93EE93129744C0F0931501E0939D
:1011E00014013FC08D919C9111974817590708F43D
:1011F000AC017D0112960D90BC91A02DB3CF8091D2
:1012000012019091130188159905E1F446175707CB
:10121000C8F48091000190910101009741F48DB7CD
:101220009EB74091040150910501841B950BE8176E
:10123000F907C8F4F0931301E0931201F9017183E7
:1012400060830FC0CB010E9443077C01009759F0D7
:10125000A801BE010E943A09CE010E94D807C70129
:1012600004C0CE0102C080E090E0CDB7DEB7EEE072
:101270000C942C07FB01DC0102C001900D9241503F
:101280005040D8F70895FB01DC0101900D92002039
:08129000E1F70895F894FFCF87
:081298000000160180000000B7
:00000001FF
